:040000050040393945
:020000040040BA
:10000000B83B40203939400035394000353940008F
:1000100035394000353940003539400000000000D6
:100020000000000000000000000000003539400022
:1000300035394000000000003539400035394000B6
:1000400035394000353940003539400035394000F8
:1000500035394000353940003539400035394000E8
:1000600035394000000000001518400025184000F8
:1000700035184000412E40003539400035394000E8
:1000800045184000551840003539400035394000CA
:1000900035394000353940003539400035394000A8
:1000A0003539400035394000353940003539400098
:1000B0003539400035394000353940003539400088
:1000C0003539400035394000111D40000000000066
:1000D0000000000000000000000000000000000020
:1000E0003539400035394000353940003539400058
:1000F0003539400035394000353940003539400048
:100100003539400035394000353940003539400037
:100110003539400000000000000000000000000031
:100120003936400035394000353940003539400016
:1001300035394000000000003539400035394000B5
:1001400010B5054C237833B9044B13B10448AFF311
:1001500000800123237010BD900D4020000000009E
:1001600058924000084B10B51BB108490848AFF33E
:1001700000800848036803B910BD074B002BFBD073
:10018000BDE81040184700BF00000000940D40205B
:100190005892400058924000000000000346500072
:1001A00010B40138002419609C805881DC802046FE
:1001B0001A8110BC704700BF10B50A201E4CA04722
:1001C0000B20A0470C20A0471020A0471120A047DB
:1001D0001A4A1B48012313605361C2F8A0305366CA
:1001E000C2F8903053655362C2F88030116F21F02D
:1001F00001011167516F21F0010151670168FF2969
:1002000019D04A0902F5001202F20772520201F0F7
:100210001F018B405361C2F8A0301366C2F89430BE
:1002200053655362C2F88030116FDB431940116788
:10023000516F0B40536710BD5D38400000100E40F9
:1002400084014020324AD36BD26BC3F38063C2F384
:10025000C06253EA420319D0032B10B417D02D4BC0
:1002600010BC20225A61C3F8A0205A66C3F890201F
:100270005A655A62C3F88020196F21F0200119676E
:10028000596F21F020015967C3F8B4207047214B02
:10029000214C01211966C3F8901059655962C3F8C1
:1002A00080101A6F22F001021A67586F0222084369
:1002B000586759601A66C3F890205A655A62C3F8A5
:1002C0008020186F20F002001867586F104358679D
:1002D0005A602268530903F5001303F207735B02A7
:1002E00002F01F0201FA02F25A61C3F8A0201A6656
:1002F000C3F894205A655A62C3F88020186FD4431B
:1003000020401867596F21405967C3F8B420A6E709
:10031000000E0E4000100E40840140200D490B6875
:1003200001330FD00C4B1A68530903F5001303F285
:1003300007735B0202F01F02DB6B012000FA02F27E
:100340001A4204D10B6B013314BF03200220034B6C
:10035000184700BF34024020840140206D06400051
:10036000144B1549DA6BDB6BC2F38062C3F3C063D5
:1003700042EA430310B5CC6B032B08BF04F0010421
:100380000E4B0CBF84F00104002498470C4B5B68B3
:10039000002803F4E06308BF0124B3F5407F01D0D7
:1003A000204610BD074B04209847022808BF0124AF
:1003B000204610BD000E0E4000100E40D933400004
:1003C00000180E4089364000014B024A1A607047FF
:1003D00050180E40010000A510B41F4A1F491078A4
:1003E000CC7A1F4B51789278FF2883E817000ED003
:1003F000430903F5001303F207735B0200F01F00CB
:10040000012404FA00F01861C3F8A0001863FF2962
:100410000ED04B0903F5001303F207735B0201F0E2
:100420001F01012000FA01F11961C3F8A01019633E
:10043000FF2A0ED0530903F5001303F207735B0282
:1004400002F01F02012101FA02F21A61C3F8A02092
:100450001A6310BC704700BF300240207002402079
:1004600078014020052812D8012202FA00F010F08D
:10047000360F0DD0FF290AD04B0903F5001303F204
:1004800007735B0201F01F0102FA01F15963704723
:1004900010F0090FFBD0FF29F9D04B0903F5001329
:1004A00003F20773580201F01F0302FA03F101631C
:1004B000704700BF052832D8DFE800F03261819232
:1004C000A303584B1968FF290BD04A0902F5001203
:1004D00002F20772520201F01F01012000FA01F13D
:1004E00011635968FF290BD04A0902F5001202F284
:1004F0000772520201F01F01012000FA01F111639D
:100500009A68FF2A0BD0530903F5001303F207730F
:100510005B0202F01F02012101FA02F25A637047E6
:10052000404B1968FF290BD04A0902F5001202F26C
:100530000772520201F01F01012000FA01F111635C
:100540005968FF290BD04A0902F5001202F207721E
:10055000520201F01F01012000FA01F111639A68B3
:10056000FF2ADCD0530903F5001303F207735B0283
:1005700002F01F02012101FA02F21A637047294BAF
:100580001968FF290BD04A0902F5001202F207721E
:10059000520201F01F01012000FA01F111635968B4
:1005A000FF29ADD04A0902F5001202F20772520289
:1005B00001F01F01012000FA01F15163A0E7194B7E
:1005C0001968FF298DD04A0902F5001202F207725C
:1005D000520201F01F01012000FA01F1516380E78E
:1005E000104B1968FF29ABD04A0902F5001202F23C
:1005F0000772520201F01F01012000FA01F151635C
:100600009EE7084B1968FF29C9D04A0902F5001274
:1006100002F20772520201F01F01012000FA01F1FB
:100620005163BCE7780140200D4B1968FF290ED0BB
:100630005A68FF2A10B4044602D09B68FF2B03D1EE
:100640002046084B10BC1847074B10BC1847596888
:10065000FF2902D19968FF2901D0024B1847704742
:100660007801402065044000B504400070B50C4C92
:100670000C4D21464FF4006201F8040B04F604000F
:10068000A84704F61C0104F501604FF40062A84776
:100690002378012B00D070BD034BBDE87040184794
:1006A000AC0D40209D014000B92D4000F0B583B055
:1006B000EFF31083B3FA83F35B09019372B6BFF3D0
:1006C0005F8F174B174D00EB400003EB80000023BA
:1006D0002B70019EB0F80A38B0F80878B0F80E48D0
:1006E000B0F80CE89AB2BBB2D31A23409E450FD0A3
:1006F000B0F80A38D0F804289BB203EA5404013356
:100700001155B0F80E281340BFF35F8FA0F80A38D8
:1007100026B101232B70BFF35F8F62B603B0F0BD2B
:10072000AC0D4020DA03402070B483B0EFF31082A8
:10073000B2FA82F25209019272B6BFF35F8F154B83
:10074000154C00EB400003EB800300202070019D5E
:10075000B3F80A18B3F8082889B292B291420FD0C0
:10076000B3F80828B3F80E18D3F8040892B202EAD6
:10077000510601320A40805DBFF35F8FA3F808285D
:1007800025B101232370BFF35F8F62B603B070BC45
:10079000704700BFAC0D4020DA03402010B483B096
:1007A000EFF31083B3FA83F35B09019372B6BFF3DF
:1007B0005F8F0E4A0E4900EB400002EB80030022DF
:1007C0000A70019CB3F80A08B3F8082883B290B203
:1007D000181AB0FA80F0400924B101230B70BFF35E
:1007E0005F8F62B603B010BC704700BFAC0D4020F5
:1007F000DA03402030B583B0EFF31083B3FA83F30C
:100800005B09019372B6BFF35F8F094B094C1B78EC
:1008100000222270012B019D07D025B101232370F6
:10082000BFF35F8F62B603B030BD034B9847F4E768
:10083000AC0D4020DA034020852D400082B0EFF35C
:100840001083B3FA83F35B09019372B6BFF35F8F32
:100850000A490B4B00220A7000EB400003EB8000BA
:10086000019BA0F80A28A0F8082823B101230B70E7
:10087000BFF35F8F62B602B0704700BFDA0340205B
:10088000AC0D4020F8B5124C124D134F04F1840604
:100890002B7C2178FF2B09D08B42104A02D109E032
:1008A000994207D012F8043FFF2BF9D10C34B4421F
:1008B000EED1F8BDA3685188527860689A4228BF8B
:1008C0001A4629440C34B847B442E1D1F1E700BFDD
:1008D00088014020882F4020CD424000982F4020A2
:1008E00030B583B002AA154D154B002442F8044DD3
:1008F00028464FF400719847019BB3F5007F02D062
:10090000204603B030BD0F490F4B284698470028BA
:10091000F6D12B4605F50074024653F8041BA3429A
:1009200082EA0102F9D1002AEBD1AB68B3F5803F2E
:10093000E7D1064B98470120E3E700BF882F40200E
:100940000D004020B48E400049454000850840001D
:10095000024A1378013BDBB213707047D01D402070
:100960000020704700207047704700BF10B5054C4D
:10097000054A6378013BDBB26370637890470023DC
:10098000A37010BDD01D4020752D4000154A13786E
:1009900013F0800F03F0600303D1202B0ED0002052
:1009A0007047202BFBD15378212BF8D1D388072B0C
:1009B000F5D10D499381916001207047507820282E
:1009C00005D0A0F12200B0FA80F040097047D3882A
:1009D000072BE4D1054804491061938191600120FF
:1009E000704700BF90314020D41D4020690940006D
:1009F000F8B50E4C0E4A0023A127202602254FF4FD
:100A00006120082127746674E5826060A1726382A8
:100A1000A3822383237263722370A381904718B14A
:100A200023780133DBB22370F8BD00BFD01D402016
:100A3000692D400070B5074C074BA689074D2683EA
:100A400082B004F11002009300210A23A847207706
:100A500002B070BDD01D4020610A40004529400011
:100A600030B40C4CA389218B23F07C031B041B0C9A
:100A7000A381A08921F07C039BB281B200258B4227
:100A80002577238303D01046034B30BC184730BC76
:100A9000704700BFD01D4020350A400030B583B0FC
:100AA000EFF31083B3FA83F35B09019372B6BFF3DC
:100AB0005F8F114C00232370104B019D9A8992B2D5
:100AC00078B1114399818DB91B7F0C4A3BB9938949
:100AD000128B9BB29A4202D08320094B984703B0F5
:100AE00030BD22EA01019981002DEDD00122227052
:100AF000BFF35F8F62B6E7E7DA034020D01D4020E6
:100B0000350A40002DE9F047494C94F8203084B074
:100B100013B104B0BDE8F087464EB047002850D16D
:100B2000454BA58C98478542F3D0EFF31083B3FA79
:100B300083F35B09039372B6BFF35F8FDFF80C8119
:100B4000DFF8ECA0002388F80030DDF80C9094F872
:100B50002850EDB204EB45032F469B8D002B3ED071
:100B600094F83430324900222286002B2FD1B5FA76
:100B700085F56D0981F82850012384F82030B9F1FA
:100B8000000F49D104EB4704DFF8A480A38DB3F52F
:100B9000007F14BF012500251DD0B047002841D09B
:100BA000264B9847A38DA8F82400254A2549009193
:100BB00002EB47222946244C8120A04704B0BDE81F
:100BC000F0871E4BA58C98478542AED1A1E7B5FAB8
:100BD00085F77F09D0E70022A8F82420E5E7BAF8D6
:100BE00030300133AAF83030B04768B9BAF8303045
:100BF000632B09D8B9F1000F8BD0012388F800309E
:100C0000BFF35F8F62B684E7B0470028A8D0238E79
:100C1000B3F5487FEED3A3E788F80030BFF35F8FCA
:100C200062B6AFE7044B9847A38DA8F82400BCE751
:100C3000D01D4020B526400001274000112740006C
:100C4000081E4020590C400045294000DA0340208E
:100C5000004B1847050B400078B90C4A92F8283031
:100C600082F83400B3FA83F35B0902EB430382F8A2
:100C70002000988511B9064B1847704710B5054BF1
:100C80009847034BBDE81040184700BFD01D4020D7
:100C9000050B4000012E400040210120004B184769
:100CA0009D0A400010B483B0EFF31083B3FA83F3CE
:100CB0005B09019372B6BFF35F8F0C4A0C4B0021A6
:100CC00011700199B3F8380493F83C4403EB4403E2
:100CD00080B2B3F840349BB2181A21B101231370CB
:100CE000BFF35F8F62B603B010BC7047DA034020D9
:100CF000D01D402070B584B0EFF31083B3FA83F3B6
:100D00005B09039372B6BFF35F8F234D234B002221
:100D10002A70039893F83C4493F8441461B9E4B200
:100D200003EB440201F0FF06B3F83814B2F8402494
:100D300089B292B2914202D2E8B904B070BDB4FA5D
:100D400084F252090121A3F8386483F83C2483F823
:100D50004414D8B90020124B9847A0B9114A124B3D
:100D6000009302EB44224FF4007301210F4C022048
:100D7000A04704B070BD01232B70BFF35F8F62B634
:100D8000002004B070BD0A4B9847E7E72970BFF315
:100D90005F8F62B6DEE700BFDA034020D01D40203F
:100DA000A50C4000182240200D0E400045294000AF
:100DB000D92D400038B5124C124B00256570A58521
:100DC00084F82050E58584F83450A58484F82850B0
:100DD00098470D4B84F8445484F83C54A4F840548C
:100DE000A4F84254A4F83854984740B163780133CA
:100DF000DBB263706378DBB2012B08BFA37038BD30
:100E0000D01D4020050B4000F50C400010BB10B574
:100E1000114C94F83C34B3FA83F382B05B0959B1B6
:100E200004EB43030D4A89B2A3F8401484F8440448
:100E300002B0BDE810401047104604F58964084A26
:100E40000092012104EB43224FF40073054CA047AC
:100E500002B010BD704700BFD01D4020F50C40000F
:100E60000D0E40004529400008B50020024B984770
:100E7000003018BF012008BDA50C40002DE9F04747
:100E8000274C284F94F80A90274EA9F109094FF0F2
:100E9000000EB9FA89F982B04FEA59193D46F04679
:100EA000EFF31083B3FA83F35B09019372B6BFF3D8
:100EB0005F8F87F800800198B4F8383494F83C24A8
:100EC000D2B204EB42019BB2B1F8401489B2E8B946
:100ED0008B4207D3A37803F0FF00002BE0D102B0D0
:100EE000BDE8F08704EB42221A44013392F848A48B
:100EF0009BB24AEA0E0AA4F83834B047B9F1000FA1
:100F00000AD04FEA0A2E4FF00009C9E701202870E5
:100F1000BFF35F8F62B6DBE7504602B0BDE8F087F3
:100F2000D01D4020DA034020F50C40000020014B8A
:100F3000184700BF7D0E4000F0B482B0EFF310837D
:100F4000B3FA83F35B09019372B6BFF35F8F174C5B
:100F5000174900222270019D91F82830DBB201EB85
:100F60004300808DB0F5007F0AD0C0F5007025B138
:100F700001232370BFF35F8F62B602B0F0BC7047ED
:100F800091F8206006F0FF075EB991F8342052B95D
:100F9000B3FA83F35B09012281F8342081F8283009
:100FA000E5E71046E3E73846E1E700BFDA03402013
:100FB000D01D402008B50020024B9847003018BFD4
:100FC000012008BD390F40002DE9F047DFF890A05F
:100FD000214E9AF80A50214FA5F10905B5FA85F579
:100FE00082B00C466D094FF000084FF00109002057
:100FF000B04740B99AF8023003F0FF00002BF6D159
:1010000002B0BDE8F087EFF31083B3FA83F35B0916
:10101000019372B6BFF35F8F87F8008001999AF849
:101020002830DBB20AEB43000AEB4323828D1344E2
:10103000013283F83840828519B94DB12412002558
:10104000D5E787F80090BFF35F8F62B6002DF5D12A
:10105000012002B0BDE8F087390F4000DA034020DC
:10106000D01D40200146014B00201847C90F400009
:10107000024A034B907800F07F00184790314020DF
:10108000C926400070B4124E33681B681A79824238
:1010900019D973605C881C44A34214D2002505E072
:1010A0001A7813449C424FF001050BD95A78042A50
:1010B000F6D19A788242F3D1DA788A42F0D12DB90A
:1010C000012001E07360002070BC70477360F7E797
:1010D000202640202DE9F041DFF8808098F8083084
:1010E0001BB900273846BDE8F0810021194D0446A0
:1010F000A8470028F5D0D8F800305B6853F8246082
:10110000F368984798F80830002BEAD0014620464B
:10111000A84707460028E4D0D8F804400E4DD8F878
:10112000003021781A6853880C441A44A24206D829
:1011300008E0052B0BD023781C44A24202D9637827
:10114000042BF6D1736898473846BDE8F081A07843
:10115000A847E4E7851040002D27400020264020C6
:101160002DE9F041164D2B7A13B90020BDE8F0812E
:10117000144B074698470028F7D06C68124E296830
:1011800020780A68538804441A44A24206D808E02A
:10119000052B0DD023781C44A24202D96378042B7E
:1011A000F6D14B6853F82730BDE8F0411B6818476B
:1011B000A288E178A078B0470028E0D1D5E700BF49
:1011C0002026402085104000392A4000004B184757
:1011D0000524400070B50B4D2B7A73B12B681B684A
:1011E0001B7953B1084E00242046B0472B681B687A
:1011F00001341B79E4B2A342F6D8002201232A72FB
:101200006B8170BD20264020D510400010B5034BE7
:101210009847034BBDE81040184700BF0126400027
:10122000D511400038B50B4D2B7A8BB12B681A685D
:1012300012796AB100245B6853F824301B6903B14A
:1012400098472B681A6801341279E4B2A242F2D8A6
:1012500038BD00BF202640202DE9F843974C237865
:101260000022A281226162611A060BD413F0600F82
:1012700024D003F01F03012B63D0022B3AD00020AF
:10128000BDE8F883E588002DF9D013F06001F0D1B6
:1012900013F01F0340F09B806378062B00F054810D
:1012A000082B00F04981002BE9D1022DE7D1294616
:1012B0008348844B98470120BDE8F88313F01F034F
:1012C0006BD16378013B082BD9D801A252F823F0E7
:1012D0002F1440007F1240000B1440007F1240008A
:1012E000FB1340007F1240007F1240007F1240003D
:1012F0004D144000744E337A002BC0D033681A6806
:101300001279002ABBD0DFF8E8810024374604E0D8
:101310003B681A681279A242B1D95B6853F824502D
:10132000EB689847337A01462046002BA7D0C04788
:101330000028A4D0AB6898470134E4B20028E7D075
:10134000B9E7614E337A604D002B98D02F6826792B
:101350003B68DFF868811B79B34290D900213046A1
:10136000DFF88C91C847002800F0FE817B6853F8B5
:101370002670FB6898472B7A002B80D001463046B8
:10138000C847002800F0F081BB689847002892D138
:1013900098F8003003F01F036FE7012B64D0022B95
:1013A0007FF469AF6378012B79D0032BA2D1E38856
:1013B000002B9FD16388002B9CD12079434B984709
:1013C0002079434B984700287FF475AF2DE0012B1F
:1013D00000F09080022B7FF44EAF6378002B89D110
:1013E000022D87D120793B4B984702463648354B32
:1013F00020F80E2F294698475DE7E3882F4A002BF7
:101400007FF43DAF344B136155E7E3882B4D002B40
:101410007FF435AF6B88022B7FF431AF2F4B9847A9
:1014200018B12B79002B00F05981237821E7E3884C
:10143000224A002B7FF423AF5388012B7FF41FAF88
:10144000214A538923F00203538134E7E3881B4D7B
:10145000002B7FF414AF224B9847002840F0048102
:101460002B7803F01F0306E763780B2BDDD1E388AD
:10147000154E002B7FF466AF337A002B3FF462AF3A
:101480002579184B6688284698470028CDD0F1B2B8
:101490002846154B984700287FF40DAFC5E7E38831
:1014A000002B7FF427AF6388002B7FF423AF2079D4
:1014B0000E4B984700287FF4FEAEB6E790314020EF
:1014C0002A26402021274000202640200D2C4000C5
:1014D000952740008127400071104000B52640004C
:1014E000F1264000D51040006111400079284000ED
:1014F0008510400063780A2B97D1012D9C4E7FF414
:1015000021AF337A002B3FF41DAF376825793B6854
:101510001B79AB427FF616AF2846964B98470028BA
:1015200083D07B6853F82530DB68984701213073FE
:10153000914B92489847BEE6012D7FF4A0AE294614
:101540008F488D4B9847B6E66288130A013BD5B2A7
:101550000E2B3FF694AE01A252F823F05516400030
:101560002D164000EF1540007F1240007F12400012
:10157000E3154000B91540007F1240007F12400083
:101580007F1240007F1240007F1240007F12400017
:101590007F124000991540007A4B586900283FF4AB
:1015A0006EAE4188744B9847E388A28976499A4287
:1015B0007FF681AE8B817EE6744B9847714B002895
:1015C00040F0B0809A68527CAA427FF62EAF1A692A
:1015D000694B52F8350041889847A36807225A7032
:1015E000E2E7684A644BD06801789847DCE7ABB221
:1015F000012B00F0B480C0F0AD80022B7FF415AF5A
:10160000634E1121354663482A4612F8013B20F803
:10161000023F531BDBB28B42F7D34B000233194618
:101620005C48554A86F820309047BDE7574B9847AD
:10163000544B00286AD09A68527CAA427FF6F5AED5
:101640001A694D4B52F8350041889847A368022229
:101650005A70A9E74D4B98474A4A474B00286DD12D
:101660009068017898479FE7DFF82081454FC04791
:10167000AA7800282DD0BB685B7C9A423FF7D5AE94
:10168000454B3B4E9847A3783372002B3FF413AE83
:10169000C047337A002855D03A6903F10053013B23
:1016A00002EBC303336033681B681B79002B3FF4E4
:1016B00002AE3A4F002528460021B8470135EDB269
:1016C00000283FF4B2AE33681B681B79AB42F2D8F6
:1016D000F1E53B685B7C9A42D2DDA6E62E4B98474B
:1016E000AB881B0A013B032B3FF69FAEDFE803F0FC
:1016F0000B0805022A4B2361DDE52A4B2361DAE55D
:10170000294B2361D7E5294B2361D4E51A68527C24
:10171000AA427FF68AAE5A68174B52F835004188C4
:10172000984793E71A68527CAA427FF67EAE5A68C1
:10173000114B52F83500418898474EE71068017800
:10174000984731E77A6803F10053013B02EBC3038A
:101750003360A8E704211648074B984724E7154D46
:101760000721A5F114064EE7237803F01F0384E553
:101770002026402085104000212740002C264020B4
:10178000282640200403402090314020B526400008
:10179000BC024020DC024020D51140006111400015
:1017A000C52C4000B12C4000952C4000792C400005
:1017B000D8024020D0024020F8B5134B05460E4613
:1017C0009847124B04462846984714EA000519D05A
:1017D0000F4C04F160072368B34205D0A74211D033
:1017E00010342368B342F9D161682942F6D0E36826
:1017F000304698476368A74225EA030502D01034B3
:10180000002DE8D1F8BD00BF953640009936400064
:10181000382640200A210148014B1847000E0E408F
:10182000B91740000B210148014B184700100E402A
:10183000B91740000C210148014B184700120E4017
:10184000B917400010210148014B184700140E4001
:10185000B917400011210148014B184700160E40EE
:10186000B9174000C16070474069704743699B07E2
:1018700043BFC1F30801C16100200120704700BFD0
:101880004369DB07FCD58369C3F308030B600020C1
:10189000704700BF034B01221A70BFF35F8F62B61F
:1018A000704700BFDA03402030B4037D04686FF353
:1018B000000303756CB10D4613B2074951F823308C
:1018C0008168DB052846234648BF42F0800230BCD1
:1018D000184730BC704700BF0081034000F00F0282
:1018E000531E064803EB430300EBC300037DDB07F5
:1018F00000D470470121024B184700BFB426402096
:10190000A918400030B4114B032282B083F848205C
:10191000EFF31083B3FA83F35B09019372B6BFF35D
:101920005F8F0B4C0B480C4A00232370019D012351
:10193000082103601360016011601DB12370BFF3C3
:101940005F8F62B602B030BC704700BFB426402043
:10195000DA03402060810340F081034010B483B07B
:10196000EFF31083B3FA83F35B09019372B6BFF30D
:101970005F8F0D4B0D4800221A7001990122026001
:1019800019B11A70BFF35F8F62B6094A09480A4954
:1019900000230224046013615361938181F848306D
:1019A00003B010BC704700BFDA0340202082034020
:1019B0009031402060810340B42640202DE9F04161
:1019C00084B0EFF31083B3FA83F35B09019372B62B
:1019D000BFF35F8F554E564900233370019A0123A0
:1019E0000B60002A56D1534D95F84830032B5AD03E
:1019F000514FB5F84A20BC89A41AA4B2002C30D0AB
:101A00003F2C43D9002385F84E304024B968EFF3CA
:101A10001083B3FA83F35B09029372B6BFF35F8F4F
:101A20000020464B307002981B68404F9B0743D400
:101A300044B1434B0A4412F8011B03F8011BD9B20D
:101A4000A142F8D3B5F84A303E493F4A1C4401232D
:101A5000A5F84A400B60136000285AD104B0BDE8D5
:101A6000F081B5F84C30F98813449BB29942A5F83F
:101A70004C3028D095F84E80B8F1000F23D17B6907
:101A800023B1984700284BD1B5F84A20012385F8A7
:101A90004E30BBE73370BFF35F8F62B6254D95F8CC
:101AA0004830032BA4D1244B1B6903B19847274B23
:101AB000984704B0BDE8F08110BB042385F8483096
:101AC00004B0BDE8F081042385F84830EFF31083BB
:101AD000B3FA83F35B09039372B6BFF35F8F0023FE
:101AE0003370039A17481849104C102303600B6099
:101AF000002AB3D001232370BFF35F8F62B6ADE736
:101B000001233B70BFF35F8F62B6042385F8483032
:101B1000D6E73370BFF35F8F62B604B0BDE8F081E3
:101B2000A5F84A404246BC896AE700BFDA03402074
:101B300020820340B4264020903140203081034071
:101B4000000010A060810340F08103405D19400057
:101B50002DE9F047411E4F00634D7B1805EBC30391
:101B600082B01C7DE60754D5DA689B689A4274D02F
:101B700004B25E4E9B1A56F824E0B3F5803FB2469D
:101B800092BF4FEA03494FF480334FF000094FEA08
:101B900084081EF4807FC24456F824603CD04FF085
:101BA000080EC6F302160EFA06F6013E1E4276D164
:101BB00007EB010C05EBCC0CDFF850E1DCF804601E
:101BC0002401A6443244CEF80420EFF31082B2FA86
:101BD00082F25209019272B6BFF35F8F444C002229
:101BE0002270019EDEF80C20D2061CD449F021029E
:101BF000CEF80820DCF80C503E4ACCF810304FF0FC
:101C000000702B4400FA01F1CCF80C309161002EE9
:101C100057D102B0BDE8F087C6F3C126012E56D0D9
:101C200049F01409C4E7002E45D17B1805EBC30326
:101C3000DA689A60DAF800201B7DD20501D59E078C
:101C400016D4DC07E5D50246781805EBC000002164
:101C5000294B984702B0BDE8F0870FFA80F8234B74
:101C600053F82830DA054FEA8808ECD5A307EAD5FF
:101C70002249234A012348F8013058F8022021491B
:101C8000D50344BF204A48F802301A4B4FF4805223
:101C9000012402FA00F048F801409861B9E77E1883
:101CA00005EBC60649EA0E0996F814E06FF3410EFB
:101CB00086F814E07CE701232370BFF35F8F62B6E0
:101CC000B3E701232370BFF35F8F62B6A1E7DAF8B1
:101CD00000604FF0080EC6F302160EFA06F6B34285
:101CE0003FF666AF9CE700BFB4264020008103406A
:101CF000DA03402000800340A918400060810340BF
:101D000030810340F0810340908103400083034011
:101D10002DE9F047904B86B0984720B98F4B5B6810
:101D200013F001034BD08D4B5A68550709D5042297
:101D30009A60D3F8043813F4405F3BD006B0BDE896
:101D4000F0875A68940733D45B68D8043FD5844B36
:101D5000844A08211020186019601368590700F19F
:101D6000C8801368DA0704D57F4B1B68DB0700F1D6
:101D7000BD807C4B1A68970700F1D7801A68160758
:101D800000F189801A68D40621D5784A10211160A3
:101D90001B689807D2D4764B93F84830012B00F09B
:101DA0004C82042BCAD1734B4FF400221A60C5E752
:101DB00002229A60704B984706B0BDE8F08772B671
:101DC000BFF35F8F6D4A137006B0BDE8F0876C49B2
:101DD000624D01234FF000784FF4805C5C1E2A694D
:101DE000DFF878A108FA04F632420CFA03F7D8B209
:101DF0004FEA830E01F1900903F1010303D06A68F1
:101E0000164240F0DE812E693E4211D0D1F890207A
:101E1000D20703D50A68D60700F1B981D9F80020A6
:101E2000D20405D50A68C2F30132002A00F0E1812C
:101E3000042B01F10401D1D1484B5A6812F0080279
:101E400040F0A6801969CE0733D4444B1A69D406F2
:101E50007FF574AF5A68D0067FF570AFD3F80028CD
:101E600022F48042C3F8002802E05A68D10703D464
:101E7000D3F804285204F8D53D4C384B94F84F5011
:101E8000102201205A619861002D00F05E8101232B
:101E900084F84F3052E7354A082111601B68DD078E
:101EA0003FF54CAF324B93F84830032B7FF446AFED
:101EB00079E75968CD07C8D5D3F800182C4C21F420
:101EC000804110200125C3F800185D619861D3F8A6
:101ED000001894F84F0041F48041C3F8001800281E
:101EE00040F01A81002384F84F3027E7254B9847AC
:101EF00024E71F4C94F848302BB1234B1B6903B1E6
:101F00009847224B9847174B1B68C3F30A53082B7B
:101F100000F090801749154B05254FF4002004224E
:101F200084F8485008601A6008E7114C94F848207B
:101F3000012A00F0BF80022A00F0B580042A00F0D8
:101F4000B2800C4B05214FF4002284F848101A602F
:101F50000E4B9847F2E600BF253940000080034051
:101F60002082034030810340C081034060810340F0
:101F7000B4264020F081034025124000DA034020BF
:101F800034810340BD194000903140205D1940006C
:101F9000AB4CAC4F08229A602646002303EB430269
:101FA00004EBC2025D1C137DDB07EAB23ED4032DB5
:101FB00006F118062B46F1D1A34B9847A34BA44931
:101FC0001A6822F07F021A601A6842F080021A60D2
:101FD0000A6822F4CB5222F01C0242F030020A605E
:101FE0000A6842F002020A60DA6942F00102DA612C
:101FF000EFF31082B2FA82F25209039272B6BFF383
:102000005F8F944A002010700398042602254FF435
:102010008054C1F8F060C1F8F0509C61002897D05E
:1020200001231370BFF35F8F62B691E70121304641
:10203000B847BCE7884A894B894813F8011B02F866
:10204000011F8342F9D1874B984700283FF462AFC4
:10205000854B864A0421196092F900100029C0F2CC
:102060003881D288002A00F0E88000220120102167
:10207000A4F84C20A4F84A2084F848001960EFF333
:102080001083B3FA83F35B09019372B6BFF35F8FDA
:10209000704B77481A70019B0160002B3FF44EAEE5
:1020A000744B98474AE6714B1B69002B3FF450AFC5
:1020B00098474DE71A686D4EB4F84A30B189B56853
:1020C000C2F30A5298188142B8BFCA1A92B28AB1B2
:1020D000591E6248294410F8015B01F8015FC5B23E
:1020E0009542F8D313449BB2402AA4F84A30544D89
:1020F00000F0CC807269B381002A42D0904700285A
:102100003FD15B49584B05254FF40020022284F84B
:10211000485008601A6011E657498B78A3B1EFF375
:102120001083B3FA83F35B09049372B6BFF35F8F36
:1021300048488B780270049A013B8B70002A3FF468
:10214000D1AE4C4B9847CDE6FEE74B4A9378FF2B38
:1021500016D0EFF31083B3FA83F35B09059372B6DD
:10216000BFF35F8F3B4993780D70059D01339370EA
:10217000002D3FF48CAE0870BFF35F8F62B686E629
:10218000FEE7394A3D4B022111609847D6E53C4AAB
:102190002B4B354E012104EB44044FF480454EF89F
:1021A000021003EBC4034EF806104EF802501A7DDD
:1021B000D1077FF5C3AD024600211846214B984751
:1021C000BCE5304B02011344DA68D1073FF5B6ADE8
:1021D000CAF81460DB68190C08D0194B04EB4404EE
:1021E00003EBC403DA68521ADA609A60264B984708
:1021F000A4E5134B224D1549154804EB44044FF454
:1022000080564EF8056003EBC4044F6104F11003DF
:10221000247D62F382041C715EF8003001F5F871D0
:102220004FF4002423F400734FF480224EF8003062
:102230004EF801404EF8012080E5104B98477DE5AF
:10224000B4264020A9184000D5114000008003406A
:1022500000810340DA0340208F314020000010A0AD
:10226000080010A0591240006081034090314020C6
:10227000F081034095184000883140200519400046
:102280002082034000830340511B4000B5F84C20DE
:10229000F08822491A4490427FF72CAF8A899A42EB
:1022A00022D01F4B0221102219601A60EFF3108315
:1022B000B3FA83F35B09029372B6BFF35F8F194BD6
:1022C000194900201870029B0A60002B3FF436ADBC
:1022D000E6E600230221154AA4F84C30A4F84A305F
:1022E00084F84810904729E54B6963B1984750B18D
:1022F000B5F84C10B5F84A3000220B44A5F84C3024
:10230000A5F84A20CDE70848054B4FF400240222E7
:102310000521046085F848101A600FE590314020CF
:1023200060810340DA034020F0810340BD19400082
:10233000F0B583B0EFF31083B3FA83F35B09009336
:1023400072B6BFF35F8F2B4D2B4895F84F100023CB
:102350000370009C002931D02849D1F800380122AF
:1023600023F48043C1F8003885F84F20D1F80428C1
:10237000224B5204FAD519684FF0080E21F48071EF
:1023800001221025042702261960C3F818E09A617B
:102390009D619F619E61C3F808E09F609E60DA6066
:1023A0009D60D3F8001841F48041C3F800181CB1B7
:1023B0000270BFF35F8F62B603B0F0BD104A93782E
:1023C000FF2B15D0EFF31083B3FA83F35B0901936E
:1023D00072B6BFF35F8F93780170019901339370E8
:1023E0000029B9D001230370BFF35F8F62B6B3E752
:1023F000FEE700BFB4264020DA03402000800340FF
:1024000088314020F0B585B0EFF31083B3FA83F341
:102410005B09019372B6BFF35F8F4C4C4C4B0022AB
:1024200022702220019D98474A4B98474A4B4B4ABD
:10243000A020042183F8220359604FF480209047A4
:10244000474B4FF00072C3F80028D3F8002842F43D
:102450000042C3F800281A6822F480521A601A68F1
:1024600022F440621A60D3F8002822F48042C3F8B4
:102470000028D3F804283A485204FAD53949D0F84C
:1024800000E80E7D91F82C2091F8443091F85070BE
:1024900006F0FE0602F0FE0203F0FE036FF3820672
:1024A0006FF382026FF382034EF4804E0E7581F853
:1024B0002C2081F84430C0F800E87FB191F84F300B
:1024C00063BB002381F84F30274B984725B1012388
:1024D0002370BFF35F8F62B605B0F0BD234A81F869
:1024E0004F70D3780120FF2B81F8500015D0EFF307
:1024F0001083B3FA83F35B09029372B6BFF35F8F65
:10250000D3782770029E11490133D370002EDBD09F
:102510000870BFF35F8F62B6D6E7FEE7134A937881
:102520009BB1EFF31083B3FA83F35B09039372B6A5
:10253000BFF35F8F0023237093780398013B937060
:102540000028BED00A4B9847BBE7FEE7DA034020DD
:102550005D384000D934400000E100E0113940000E
:1025600000800340B42640203123400088314020C1
:10257000951840001D4B1E49D3F8002891F84F00D4
:1025800022F48042C3F800281A6842F480721A606C
:10259000D3F8002842F48042C3F8002818B9002379
:1025A00081F84F307047134A9378BBB110B582B0B1
:1025B000EFF31083B3FA83F35B09019372B6BFF3B1
:1025C0005F8F0D489378002404700198013B93704D
:1025D00028B9002381F84F3002B010BDFEE7074B49
:1025E0009847002381F84F3002B010BD00800340AF
:1025F000B426402088314020DA034020951840005E
:1026000070B582B0EFF31083B3FA83F35B090093E4
:1026100072B6BFF35F8F1F4C1F4A204900262670F9
:10262000009DD2F8003823F48043C2F80038884770
:102630001B4B93F850209AB9174A1A49D2F8003820
:1026400023F40043C2F8003888472220164B9847ED
:1026500025B101232370BFF35F8F62B602B070BD56
:10266000124A83F85060D37893B1EFF31083B3FA32
:1026700083F35B09019372B6BFF35F8FD378267043
:102680000199013BD3700029D6D0094B9847D3E775
:10269000FEE700BFDA0340200080034075254000BC
:1026A000B4264020F9344000A13840008831402051
:1026B00095184000034BD3F8040810F4405018BF9D
:1026C0000120704700800340084B1A6822F0800206
:1026D0001A601A6800F07F0022F07F021043186031
:1026E0001A6842F080021A60704700BF0080034001
:1026F000024B186800F07F00704700BF0080034065
:10270000024B186AC0F3CA00704700BF0080034044
:10271000024B186AC0F30D00704700BF00800340F1
:10272000014B9860998170479031402070B500F05E
:102730000F04032C1AD80E4D0E49EA690E4E0123E0
:10274000A34022EA030322B2EB6151F8223023F0C6
:10275000020341F82230B047013C084B04EB44042B
:1027600003EBC404237D6FF38203237570BD00BFA8
:102770000080034000810340DD184000B426402063
:10278000034B00F00F0053F82000C0F3C040704727
:10279000C081034000F00F03032B3BD819B22E4A2F
:1027A00052F82120120333D4F0B45A1E2B4D02EB01
:1027B000420205EBC20582B02C7D04F0040606F04F
:1027C000FF020EBB14F0010426D1EFF31082B2FA1F
:1027D00082F25209019272B6BFF35F8F204E020659
:1027E0003470019C1AD41F4A1F4D52F821301F48E3
:1027F00023F4007342F8213040274FF4002345F8BA
:10280000217040F8213004BB012002B0F0BC7047B9
:1028100001207047002070471046F6E7144A52F82E
:10282000212012F4405FDED0287D104F05F1100208
:1028300040F0040010710F4D4FF4805202FA03F380
:1028400047F82120AB61002CDED001203070BFF3AF
:102850005F8F62B6D9E700BFC0810340B426402035
:10286000DA0340200081034060810340F08103408F
:10287000308103400080034000F00F00032844D85B
:10288000F8B5431E5C002749E21801EBC202157D32
:102890006F0730D5167DDFF8A8E0234F05B26FF340
:1028A000820616754FF480524EF8252082401F484C
:1028B0007A6150F825607246A800360302440BD5B1
:1028C0001B4D45596D0622D41A4D4FF40026166053
:1028D000425942F4007242512344DB00194411482A
:1028E0000A7DD4070FD5C2580B7D6FF300030B751B
:1028F00090470120F8BD00B20C4A52F82020120384
:102900004FEA80000BD40120F8BD002070470A4E2A
:102910000A4D402787514FF480264651D4E7084A94
:102920000244CDE7B426402000800340C08103402C
:10293000308103400081034060810340F081034007
:102940002082034000F00F00032838D82DE9F0471B
:10295000344C0126E46906FA00F5254282B02AD0FB
:1029600004B2314D55F82440240324D400F1FF3C37
:102970000CFA06F8DFF8BCE008EB0C050EEBC50519
:102980002F7D07F0040707F0FF04A7B9EFF31087C6
:10299000B7FA87F77F09019772B6BFF35F8F234FAE
:1029A00095F814A03C701AF0010FDDF8049008D0DF
:1029B000B9F1000F30D1002002B0BDE8F08700204F
:1029C00070472C7D44F001042C75B9F1000F1ED125
:1029D00008EB0C05ED000EEB05040A9E4EF80560B1
:1029E00000256260A360E560256171B9B3FA83F3E5
:1029F0005B0908EB0C020EEBC2020D4C117D63F378
:102A000041011175A0470120D6E70123F1E73E708F
:102A1000BFF35F8F62B6DBE73E70BFF35F8F62B6D6
:102A20002046C9E700800340C0810340DA0340200C
:102A3000511B4000B42640202DE9F04F00F00F0458
:102A4000032C83B000F2B7806A4D0123ED69A340E7
:102A50002B4040F0B08011F0030500F0AC80022D57
:102A600040F2AD80032D40F0A6801D4627B2624E95
:102A7000A2F5806E56F827C010F0800F1FFA8EFE68
:102A80002CF4CB504FEAC1210CBF4FF0000C4FF497
:102A9000807CBEF57C4F01F4C05120F01C00C0F0DA
:102AA0009080082A00F29E80294341EA0C010B43E2
:102AB00041F67C121A404FF0010E10430EFA04F555
:102AC000032C46F82700ADB218D04C49494F0323D8
:102AD000FE690EFA03F2164203F1FF33D8B209D0B1
:102AE000FE6926EA0206FE610E68154326F0020220
:102AF000ADB20A60A042A1F10401E9D8404E3E49BE
:102B0000404BDFF8FCB004F1FF3E4FEA840C4FEA83
:102B10004E0808EB0E006144634445FA04FC06EBE2
:102B2000C00001221CF0010F00F1100902FA04F2AA
:102B300037D099F804C02F4FE2466FF3000A89F8A6
:102B400004A0D1F8009049F00209C1F80090D7F82C
:102B50001C9042EA0902FA611A6857030CF001035B
:102B600027D50A6842F400720A60D3B1C2680369CB
:102B7000254FD21AC2600B68C644DB0506EBCE01B6
:102B800056F83E3000938B68D1F804E0097D4CBFC5
:102B900044F0800020469B1AC1F340017244B847BC
:102BA00048B10134E4B2042CA9D1012003B0BDE83E
:102BB000F08F03683BB9002003B0BDE8F08F042517
:102BC00054E7702370E70A68C644D2050BEBCE0EBB
:102BD00048BF44F0800401202246DEF80C109847DC
:102BE0000020E9E75300013BB3FA83F3C3F11C0370
:102BF0001B0159E700800340008103400C81034022
:102C0000B42640203081034045294000F0B400F054
:102C10000F0425B2124A134E2B011A44671E4FF0BF
:102C200000714FF48053A340B94000247161946057
:102C30000206736102D40C4BF0BC18470B490C4CD4
:102C40000C4AAD0029442C442A444FF400550B682B
:102C500013F4405FEFD0256013689B04FCD4F6E7C3
:102C60000083034000800340DD18400030810340B2
:102C7000F0810340C0810340054A136823F4406398
:102C800043F400631360136843F400531360704708
:102C900000800340054A136823F4406343F4006353
:102CA0001360136843F4804313607047008003404F
:102CB000034A136823F4406343F4006313607047CE
:102CC00000800340F0B4234C8EB004F130076E4610
:102CD00020686168A268E36835460FC51034BC42BD
:102CE0002E46F5D11C492068237928602B71CB69C9
:102CF0001A481B4A23F00103CB61036823F4CB532A
:102D000023F01C0343F4895343F01003036003686A
:102D100043F002030360CB6943F00103CB610B680E
:102D200023F4406343F400630B60086840F4004000
:102D300008606B460DF1350013F8011B02F8011F06
:102D40008342F9D1074B4FF480421A600EB0F0BCB9
:102D5000704700BFC08E40000080034000810340E8
:102D6000FFFF0FA020820340014B01201870704725
:102D70000C274020024B00221A700120704700BF30
:102D80000C274020F8B5084C23785BB1074D084F5D
:102D9000084E03E0B847B04723781BB10020A8478E
:102DA0000028F7D0F8BD00BF0C2740209D07400049
:102DB0002907400065104000004B1847CD11400026
:102DC00010B5034B9847034BBDE81040184700BFB0
:102DD000752540000D12400070B5064C064E074D9B
:102DE00003E0B047C1B20120A847A0470028F8D1AE
:102DF00070BD00BF690E40002D0F4000AD064000C1
:102E000010B50020094B984700B110BD084B04468F
:102E1000984730B12046074B9847074BBDE8104014
:102E20001847064BBDE81040184700BF9D074000FB
:102E3000B50F40002907400065104000990C400084
:102E400000B51A4B1A4883B0984710F0010313D10C
:102E5000820704D4164B1B6903B05DF804FB1846C7
:102E6000144B9847B0B102211148134B9847104BAF
:102E70001B6903B05DF804FB01A9104B0C4898478F
:102E80009DF804100E4B01209847094B1B6903B0B5
:102E90005DF804FB0B4B98470B4B014604489847E1
:102EA000034B1B6903B05DF804FB00BF69184000C9
:102EB000004002409D074000651840008118400016
:102EC000AD064000290740006D1840000146014B47
:102ED00000201847AD06400070B5084B04460D466B
:102EE00000209847294620460023054C054AA04764
:102EF0000020054BBDE87040184700BF3D0840006A
:102F0000213D4000CD2E4000F507400010B50320C4
:102F100082B0074B0C469847E122022101A8054BDD
:102F20008DF805408DF80420984702B010BD00BF11
:102F300029064000D92E4000F0B5C1B040AA0027B4
:102F400042F8F47D04A82721154B164E98470399A3
:102F5000154B164A40A8084440AD00F8F07CE02428
:102F6000C7210DF1390005F8C84DB0474FF0020EEA
:102F7000441C01228DE804403B46C4F1C8012819D5
:102F80000B4AB047044404ABC4F1C801094A2819EC
:102F9000B047094B01192846984741B0F0BD00BF22
:102FA000DD0040209D444000248F40003C8F4000C5
:102FB000408F40004C8F4000D92E400038B5114B57
:102FC0001A88824288BF18800F4B1A88824238BF05
:102FD0001880030704460D460ED00C4A9368D907A3
:102FE000FCD5291D20460A4B9847C20703D4074A3F
:102FF0009368DB07FCD538BD064B9847C007F0D473
:10300000EBE700BF0003402014274020000C0E40D7
:10301000993340008933400070B5344A447883784E
:10302000116843EA04248C4282B0054608DB5368E9
:103030009C4217DC2E4EB378002B45D124B921E0F9
:10304000FCB153689C420EDC03202A4B984702A82F
:10305000E02300F8043D0121274B9847274B984770
:1030600002B070BD6CB102A8E523012100F8053D56
:10307000214B984703201F4B9847204B984702B09D
:1030800070BD1B4E1B4C0220A0471D4AB3786968D7
:10309000516063B11B4B984702A8E02300F8073D3D
:1030A0000121154B9847154B984702B070BD05207C
:1030B000A04702A8E32300F8063D01210E4B9847E4
:1030C0000E4B984702B070BD02200A4EB047294609
:1030D00020460D4B98470D4A074B1288ADF8042047
:1030E00001A8022198470020B047B7E79C8E400016
:1030F0000003402029064000D92E4000C9034000AB
:103100001427402001344000BD2F4000008F4000B4
:103110002DE9F04F4B4EDFF838813288B8F8003097
:103120009A4285B00DD9DFF8509100240120B47087
:10313000C8474FF6FF73A8F80040338005B0BDE8DC
:10314000F08F9A1A0132012352020520DFF82891EC
:10315000B3700192C847EFF31083B3FA83F35B09AE
:10316000039372B6BFF35F8FDFF810A100238AF8D4
:103170000030039A0092019A002A60D0324D334FFA
:103180002C469B46154414F8012F9344B847A5429A
:10319000F9D1009B2BB101228AF80020BFF35F8F89
:1031A00062B6D8F804202A4D5A4504A808D0E42372
:1031B00000F8053D00220121264BB2709847B4E784
:1031C000E02300F8063D0121224B0024B47098470B
:1031D0000420C847204B28889847204B1B68072BA2
:1031E00019D920461E4B98471E4B1A68530903F500
:1031F000001303F207735B0202F01F02D96B012375
:1032000003FA02F20A4201D0174B98474FF48200AA
:10321000164B984789E7164A164C02EB830341F296
:103220002B70DB6803EB8303642203EB8303002131
:10323000E2FB030141F22C720023A047D2E7934640
:10324000A7E700BF00034020FFFF4000C903400084
:1032500014274020D92E4000BD334000E003402019
:103260000100402084014020C12D40001D34400059
:10327000F88E4000653F400029064000DA034020F8
:10328000C0B1B9B110B50378022B82B016D022D9E3
:10329000202B10D0EF2B26D0102B21D002A8E22318
:1032A000144A00F8043D0024134B94700121984700
:1032B00002B010BD7047114B9847F9E7104B1988C1
:1032C0009B78ADF804100C4A8DF8063001A8032154
:1032D000904702B010BD4BB1012BDFD1094BEEE797
:1032E000094B9847E4E7044B9847E1E7074B9847B9
:1032F000DEE700BF00034020D92E4000113140001E
:10330000FC8E4000F88E400019304000392F4000FC
:103310000B78C02B084600D07047012AFCD9511EFB
:1033200089B20130004B18478132400008B5BFF325
:103330004F8FBFF36F8F72B6BFF35F8F074B40F0B5
:10334000B44040EA01211B6800209847BFF35F8F1B
:10335000BFF34F8FBFF36F8F62B608BD24274020A5
:103360000549064A064B0868064910601A46596026
:103370009368DB07FCD570470800800024274020B5
:10338000000C0E400006000440F00201014B072033
:10339000184700BF2D33400010B50446400200F529
:1033A0008000044B984721460120034BBDE81040A4
:1033B000184700BFC50040202D33400070B5054EB2
:1033C00005460024214620340820A4B2B047A54277
:1033D000F8D270BD2D33400000B5002183B0064BFC
:1033E0000A209847054BDB6801930198C0F3001051
:1033F00003B05DF804FB00BF2D334000000C0E400D
:1034000038B5054D8024214620340920A4B2A847B0
:10341000B4F57E6FF7D138BD2D33400010B5164B93
:1034200004460520984772B6144800234FF0FF3138
:1034300003F120020133082B40F82210F8D10F4885
:1034400000234FF0FF3103F160020133082B40F8F5
:103450002210F8D1BFF34F8FBFF36F8F084B24F0CA
:103460007F029A60BFF34F8FBFF36F8F214648688A
:10347000D1F800D0804710BD8534400000E100E065
:1034800000ED00E010B5092809D8DFE800F01A1AAD
:103490001A13131313130C0503200D4B98470D4BF0
:1034A000BDE8104018470A4B02209847094BBDE879
:1034B00010401847064B01209847064BBDE81040C6
:1034C0001847034B00209847024BBDE810401847AF
:1034D000CD364000B939400010B5044B9847044B35
:1034E00000209847034BBDE810401847493840007A
:1034F000E5384000F9384000004B184705394000D6
:103500002DE9F0413C4E3D483D4DA8473478E31E3F
:10351000042B1ED93B4B3C4C98473C4B3C4A9A628F
:10352000A0470028FCD002203A4B98473A4B002095
:1035300098473A4B98473368072B3DD8384A52F89A
:10354000230000EB80002B4600EB8000BDE8F0413B
:103550001847631E062B08D8DFE803F03D414549B4
:103560000433380020202F4B9847DFF8C8802E4FB7
:10357000072CFDD801A353F824F000BF15354000F7
:10358000AB354000AB3540009D3540009D354000D7
:103590009D3540009D3540009D354000C0470030BE
:1035A00018BF01200028E3D0B4E7B847003018BFA7
:1035B00001200028DCD0ADE72B460020BDE8F0411B
:1035C00018473E210020194B9847CEE73E210120A5
:1035D000164B9847C9E70020154B9847C5E70120CF
:1035E000134B9847C1E700200E4B9847BDE71020CA
:1035F0000C4B9847B9E700BFE003402000A3E1115E
:10360000A53A4000293840003938400000060E40F5
:10361000013F18209D364000E5364000B939400092
:10362000548F40008137400065374000C937400063
:103630004137400019384000114B70B5DC699D6975
:10364000E30701D5EE0714D4E00501D5E9050AD456
:10365000E20307D5EB0305D50A4B9B6813B1BDE820
:103660007040184770BD074B5B68002BF0D098473F
:10367000EEE7044B1B68002BE6D09847E4E700BF59
:1036800000C00640A8314020014B53F8200070478D
:1036900090180E40C06C7047806C7047023802284A
:1036A00098BF084B084A98BF53F82010136B88BF87
:1036B000002123F440730B431363936E1B07FCD567
:1036C000704700BF748F400000060E40044A136B21
:1036D00023F0030318431063936E1B07FCD5704758
:1036E00000060E4015490B6B23F070031843086366
:1036F0008B6E1B0758BF4FF4006302D504E0013BFB
:1037000017D08A6E1007FAD50C490B6B23F0030310
:1037100043F002030B63886E10F0080008BF4FF4FB
:10372000006302D007E0013B03D08A6E1207FAD58E
:103730007047012070470020704700BF00060E4010
:10374000012806D1054A936843F0254343F48013CA
:103750009360024B024A1A60704700BF10180E4077
:10376000080000A5054B586910F0800005D0A3F5AE
:103770009053103B986EC0F3C010704710180E4065
:1037800010490B6A43F45C1343F008030B628A6E22
:103790000C4B9203FBD51A6A22F45C1222F07002E1
:1037A00042F45C1202431A629A6E06499203FBD5F8
:1037B0000B6A23F09B7323F4803343F45C130B6296
:1037C000704700BF00060E40C0B9104A136A23F4C8
:1037D0005C1323F00303090243F45C1389B243F042
:1037E00001030B431362936E0849DB07FBD50B6A99
:1037F00043F09B7343F480330B6270470349044AE0
:10380000086A044B024013430B62704700060E40E7
:10381000FCFFC8FE02003701024B986E00F48030B6
:10382000704700BF00060E40024B4FF000529A62F4
:10383000704700BF00060E40024B986E00F0020079
:10384000704700BF00060E40034A4FF44413D36193
:10385000936E5B06FCD5704700060E403F2819D8D2
:103860001F280E4A09D80123916903FA00F030EAB3
:10387000010311D010610020704701232038D2F8D5
:10388000081103FA00F030EA010305D0C2F8000184
:1038900000207047012070470020704700060E404E
:1038A0003F2818D81F280E4A08D80123916903FA27
:1038B00000F030EA010310D00020704701232038C7
:1038C000D2F8081103FA00F030EA0103F4D1C2F88B
:1038D00004010020704701207047506100207047AC
:1038E00000060E40000200F47060024B40F0010040
:1038F0009863704700060E40014B20221A60704703
:1039000000060E40014B20225A60704700060E4010
:10391000034A136FC0F3120003431367704700BFDD
:1039200000060E40024B187880F00100704700BF7F
:1039300030274020FEE700BF164A17498A4208B5E3
:103940000ED0164B99420BD2C843034423F0030315
:103950000433134452F8040B41F8040B9A42F9D192
:103960000F4A104B9A420AD2D1430B4423F003036F
:1039700004331344002142F8041B9342FBD10A4B49
:103980000A490B4A23F07F038B609047094B984705
:10399000FEE700BF5892400000004020900D4020FC
:1039A000900D4020B83140200000400000ED00E0C4
:1039B0007D4240005D3B400033490B6B03F0030345
:1039C000012B10B43FD027D3022B0ED02F4A1368FF
:1039D0002D48016B01F0700170292DD0016B10BCD6
:1039E000C1F30211CB40136070470B6A274ADB0119
:1039F00039D5274B13602448016B01F003010229DC
:103A0000E6D1846A816AC4F30A4000FB0333C9B279
:103A1000B3FBF1F31360DBE71E4B1C4A5B691A48EA
:103A20001C064CBF4FF400434FF4FA431360016B84
:103A300001F070017029D1D1174910BCA1FB03130B
:103A40005B08136070470B6A104AD80108D4134B07
:103A50001360096A01F07001102911D02029B7D133
:103A60000B4B1360B4E70D4B1360096A01F0700152
:103A7000102902D02029BCD0BDE7094B1360BAE75A
:103A8000074B1360A4E700BF00060E40DC03402094
:103A9000001BB70010180E40ABAAAAAA00093D00EF
:103AA00000127A00164B984217D9164B984210D93B
:103AB000154B98421AD9154B984213D9144B98427A
:103AC00018D9144B9842144B94BF144A144A1A60E4
:103AD0007047114B134A1A6070470F4B4FF08062CA
:103AE0001A6070470C4B104A1A6070470A4B0F4A15
:103AF0001A607047084B4FF004221A60704700BFED
:103B0000BFF35E017FE7BD023FDB1C04FFCE7B05F8
:103B1000BFC2DA067FB63908000C0E40000500046B
:103B20000006000400010004000300040002000479
:103B3000074A084913683BB118448142A6BF106088
:103B400018464FF0FF307047034B1360F4E700BF97
:103B500040274020FFFF4120B83F40202DE9F0479B
:103B600084B0404B404D02AF9847404B5B78022BEE
:103B700072D0012B04BF07232B603D4BDFF840A11F
:103B800098473C4B3C4A0024012159711C705C70E1
:103B90009C70DC701C719047384B9847384B9847A5
:103BA0002046D047374B9847374B04469847002C60
:103BB00034D0364C364B374E374D9847073020F0CF
:103BC0000703ADEB030D4FF400630193002202AB3A
:103BD000324900963248A847324BC6F80008984749
:103BE000314B01201870BFF35F8F62B6D0472F4D65
:103BF000DFF8D090DFF8D080A0470120A847002848
:103C0000FAD10120C8470122F871F91DD6F8000841
:103C1000C0470028F0DA0320D047EDE72B68072BD8
:103C20001DD8234A234C52F8233003EB830303EBC4
:103C30008303052241F22B700021E2FB030141F2D4
:103C40002C720023A0471C4B104C9847A0474FF400
:103C500082001A4B9847ADE705232B608DE720467D
:103C6000F1E700BFE1084000E00340202C024020C3
:103C7000D90340008831402001354000B90140009F
:103C8000613340006103400045024000C903400029
:103C9000CD3C400044274020D13C40000D2F400047
:103CA000113340001D034000DA0340209D0740000F
:103CB000808F4000653F4000010040201D344000DF
:103CC00029064000290740007D3D40002020704724
:103CD00030B4029D039CD86000201D605C60986039
:103CE000187718755875196118469A6130BC704775
:103CF00070B50A4E3378A3F17D02022A04460D46C0
:103D000002D87F20A047337818462946A047294685
:103D100023467E20BDE87040184700BF502F40204A
:103D20002DE9F843134E98467D230C46054641463F
:103D30003370184617469047A4B105EB040907E015
:103D400033786340337020464146B8474D4509D02B
:103D500015F8014BA4F17D03022BF1D841467F20D9
:103D6000B847EDE738464146034B98470020BDE889
:103D7000F88300BF502F4020F13C4000002A00F0A3
:103D8000E7802DE9F04F4368164682689A4283B077
:103D9000044623D0771E00260D460F44B0464FF050
:103DA000010994F814B0BBF1000F25D023682978DD
:103DB000501CA0609954A368042B05D92168D1F840
:103DC0000120901D834261D00023BD421E4433D0A8
:103DD000A2686368934205F10105E2D12369A069F5
:103DE0000421984700234FF0FF30A3602377237509
:103DF000637503B0BDE8F08F94F815A02978BAF187
:103E0000010F28D0237FDBB1236884F81CB0501C3D
:103E1000A0609954226813787D2B08D0A368032BE7
:103E200005D9134453F8043CB3F17C3F38D04FF02C
:103E3000000A5644BD42CBD1304603B0BDE8F08FF6
:103E4000A1F17D0002283CD9512935D02368501CAE
:103E5000A0609954DEE72368501CA0609954A368C1
:103E6000032BE4D921680A68501D8342DFD1E3683F
:103E7000A06905319847236884F814B0C4F808B0E5
:103E8000564483F800B084F815B0D3E7E368A0691E
:103E90000532984784F81480C4F80880012394E719
:103EA0004FF0000A84F81480C4F80880564482F861
:103EB000008084F81590BDE7002AC7D184F81490DB
:103EC000C4E77F2936D07D2922D0002A37D0013A95
:103ED000216845D001EB020C0B467D2013F801EB65
:103EE0009C4580EA0E00F9D18B5C834232D0236975
:103EF000A069012198474FF0000A236884F81480D4
:103F0000C4F80880564483F8008084F8158091E74F
:103F10001AB12369A06902219847236884F81480A4
:103F20004FF0000AC4F80880564483F8008084F8F3
:103F300015807FE79A4684F81C9056447AE72369F7
:103F4000A069019203219847019A9246564471E76D
:103F500010467047E368A06998474FF0010ACCE724
:103F60007D20C1E753B94AB9002908BF00281CBF0A
:103F70004FF0FF314FF0FF3000F07EB9ADF1080C8B
:103F80006DE904CE00F006F8DDF804E0DDE9022377
:103F900004B070472DE9F0478C460E460446089D54
:103FA000002B50D18A4217466CD9B2FA82FEBEF17C
:103FB000000F0BD0CEF1200420FA04F401FA0EF623
:103FC00044EA060C02FA0EF700FA0EF44FEA17491B
:103FD000220CBCFBF9F01FFA87F809FB10C642EA75
:103FE000064600FB08F3B34209D9F61900F1FF3287
:103FF00080F02281B34240F21F8102383E44F61A1B
:10400000A2B2B6FBF9F309FB136642EA064403FBCE
:1040100008F8A04509D9E41903F1FF3280F00A81BC
:10402000A04540F20781023B3C44C8EB040443EA4C
:1040300000400021002D62D024FA0EF400232C60F1
:104040006B60BDE8F0878B4207D9002D55D0002169
:1040500085E841000846BDE8F087B3FA83F10029FE
:1040600040F09080B34202D3824200F2F880841A7A
:1040700066EB03060120B446002D40D085E8101001
:10408000BDE8F08712B90127B7FBF2F7B7FA87FE50
:10409000BEF1000F35D1F31B4FEA17481FFA87FC1A
:1040A0000121B3FBF8F0220C08FB103642EA064669
:1040B0000CFB00F3B34207D9F61900F1FF3202D22C
:1040C000B34200F2CE801046F61AA2B2B6FBF8F365
:1040D00008FB136642EA06440CFB03FCA44507D91F
:1040E000E41903F1FF3202D2A44500F2B580134671
:1040F000CCEB040443EA00409CE729462846BDE88F
:10410000F087CEF1200106FA0EF307FA0EF720FA37
:1041100001F94FEA1748CE4049EA0309B6FBF8FA1D
:104120004FEA194408FB1A661FFA87FC44EA064363
:104130000AFB0CF29A4200FA0EF40AD9DB190AF1D2
:10414000FF3180F087809A4240F28480AAF1020A0F
:104150003B449B1A1FFA89F9B3FBF8F108FB1133B2
:1041600049EA034301FB0CF69E4207D9DB1901F132
:10417000FF326BD29E4269D902393B449B1B41EA14
:104180000A418EE7C1F1200E22FA0EF48B40234340
:1041900020FA0EF706FA01F44FEA134C26FA0EF64F
:1041A0003C43B6FBFCF9270C0CFB19661FFA83F89D
:1041B00047EA064609FB08F7B74202FA01F200FA9D
:1041C00001FA08D9F61809F1FF3041D2B7423FD9B8
:1041D000A9F102091E44F61BA0B2B6FBFCF40CFBCD
:1041E000146640EA064704FB08F8B84507D9FF18EB
:1041F00004F1FF3028D2B84526D9023C1F4444EAD6
:104200000940C8EB0707A0FB02894F4544464E46CC
:1042100014D329D065B3BAEB040367EB060707FA9A
:104220000EFECB40CF404EEA030385E88800002114
:10423000BDE8F0871346F8E61046E0E6B8EB020466
:1042400069EB03060138E5E70446D8E7114695E730
:104250008146C0E78A467CE7023B3C4448E7084683
:104260000AE702383E442FE7C245E7D33E46D1E78E
:104270002946BDE8F08700BF704700BF70B50F4EFC
:104280000F4D761BB61018BF002405D0013455F829
:10429000043B9847A642F9D10A4E0B4D761B04F019
:1042A000C5FFB61018BF002406D0013455F8043BF2
:1042B0009847A642F9D170BD70BD00BF389240004A
:1042C000389240004092400038924000844641EAD3
:1042D000000313F003036DD1403A41D351F8043B7E
:1042E00040F8043B51F8043B40F8043B51F8043BD0
:1042F00040F8043B51F8043B40F8043B51F8043BC0
:1043000040F8043B51F8043B40F8043B51F8043BAF
:1043100040F8043B51F8043B40F8043B51F8043B9F
:1043200040F8043B51F8043B40F8043B51F8043B8F
:1043300040F8043B51F8043B40F8043B51F8043B7F
:1043400040F8043B51F8043B40F8043B51F8043B6F
:1043500040F8043B51F8043B40F8043B403ABDD2DE
:10436000303211D351F8043B40F8043B51F8043B80
:1043700040F8043B51F8043B40F8043B51F8043B3F
:1043800040F8043B103AEDD20C3205D351F8043B0F
:1043900040F8043B043AF9D2043208D0D2071CBFDB
:1043A00011F8013B00F8013B01D30B880380604604
:1043B000704700BF082A13D38B078DD010F003037A
:1043C0008AD0C3F10403D21ADB071CBF11F8013BEA
:1043D00000F8013B80D331F8023B20F8023B7BE739
:1043E000043AD9D3013A11F8013B00F8013BF9D264
:1043F0000B7803704B7843708B78837060467047FE
:1044000070B4840746D0541E002A41D0CDB2034672
:1044100002E0621EE4B3144603F8015B9A07F8D188
:10442000032C2ED9CDB245EA05250F2C45EA0545CA
:1044300019D903F110022646103E0F2E42F8105CE7
:1044400042F80C5C42F8085C42F8045C02F110028D
:10445000F2D8A4F1100222F00F0204F00F0410327F
:10446000032C13440DD91E462246043A032A46F86B
:10447000045BFAD8221F22F003020432134404F032
:1044800003042CB1C9B21C4403F8011BA342FBD1A5
:1044900070BC704714460346C2E700BF0CB4F0B5C9
:1044A000244B00299DB01D683EDB4FF402730C467F
:1044B00002900690ADF8143023AE17D04C1E229A0D
:1044C000049433464FF6FF7702A9284607940196D5
:1044D000ADF8167000F0A2F9421C1BDB029B002213
:1044E0001A701DB0BDE8F04002B0704733464FF679
:1044F000FF77229A049402A9284607940196ADF802
:10450000167000F08BF9431C07DB1DB0BDE8F040CE
:1045100002B070478B232B60E0E78B232B601DB02C
:10452000BDE8F04002B070478B232B604FF0FF30A6
:10453000EBE700BF10084020000000000000000072
:10454000A2EB0300704700BF02780B78012A28BF56
:104550009A42F5D16DE9044540EA0104CDE90267CC
:104560006FF0000C4FEA447212B380EA010414F0B9
:10457000070F6AD100F0070420F0070004F00305DC
:1045800021F007014FEAC505F0E8042314F0040FF9
:10459000F1E804670CFA05F462EA040266EA04062C
:1045A0000AD063EA0403624667EA0407664603E04A
:1045B000F0E80423F1E8046782FA4CF582EA060485
:1045C000A4FA8CF46CBB83FA4CF583EA0705A5FAD0
:1045D0008CF595B950E9022351E9026782FA4CF54E
:1045E00082EA0604A4FA8CF483FA4CF583EA070500
:1045F000A5FA8CF52543DBD09CB92DBAB5FA85F424
:1046000024F0070427FA04F1DDE9026723FA04F332
:1046100003F0FF0001F0FF01FDE80445A0EB0100FD
:10462000704724BAB4FA84F424F0070426FA04F19B
:10463000DDE9026722FA04F202F0FF0001F0FF0157
:10464000FDE80445A0EB0100704714F0030F3CD1D6
:1046500010F0030428D150F8082B51F8083B82FAD7
:104660004CF582EA0305A5FA8CF55DB950F8042CE7
:1046700051F8043C82FA4CF582EA0305A5FA8CF560
:10468000002DE8D02DBAB5FA85F424F0070423FAFA
:1046900004F122FA04F202F0FF0001F0FF01FDE84C
:1046A0000445A0EB010070474FEAC40420F003006A
:1046B00050F8082B21F0030151F8083B0CFA04F4E0
:1046C00062EA040263EA0403C9E710F003041AD0A3
:1046D000A1EB040120F00300E40750F8042B06D0FE
:1046E0000FD28B785FFAA2F4E41A06D12BB1CB7803
:1046F0005FFAB2F4E41A00D11BB920465DF8104B02
:10470000704701F1040150F8042BCC0721F003019C
:1047100051F8043B48D824D222F07F4482FA4CF569
:1047200094EA1325A5FA8CF50AD165B951F8043B32
:1047300084EA0204B4EB036F0ED150F8042BEBE7CC
:104740004FEA132355E035F07F454DD10878FDE859
:104750000445C0F1000070474FEA126203F0FF0306
:1047600047E002EA1C4482FA4CF594EA1345A5FAA4
:104770008CF50AD165B951F8043B84EA0204B4EB24
:10478000034F0CD150F8042BEBE74FEA134330E012
:1047900015EA1C4528D10B884FEA124229E04FEA5E
:1047A000124203EA1C4324E002F0FF0482FA4CF5B3
:1047B00094EA1365A5FA8CF50AD165B951F8043B62
:1047C00084EA0204B4EB032F09D150F8042BEBE781
:1047D0004FEA13630DE015F0FF0F05D10B684FEAA8
:1047E000122223F07F4304E04FF00000FDE804456F
:1047F000704712BA1BBA82FA4CF482EA0304A4FA94
:104800008CF5B5FA85F402FA04F203FA04F34FEAE0
:104810001260FDE80445A0EB136070472DE9F04FEE
:10482000C1B00C46099115460E930A9002F034FB74
:1048300003681793184603F083F9A38916901E06A0
:1048400003D52369002B01F01A8100231A46129325
:104850002593249319930B93DFF864A4149230AB3F
:10486000239399461592A84698F800304446EBB138
:10487000252B02D11AE0252B03D014F8013F002B81
:10488000F9D1C8EB04058DB1249B259AC9F80080A5
:1048900001332A44072BC9F804502592249300F3CE
:1048A000A68009F108090B9B2B440B932378002B5E
:1048B00000F0A68000231A468DF86F3019460C933D
:1048C00007934FF0FF3B637804F101085D4608F160
:1048D0000108A3F12000582800F22584DFE810F039
:1048E00088032304230490032304230423042304C0
:1048F000230423049703A50323045D00E20023049B
:10490000FE0005010501050105010501050105017F
:1049100005010501230423042304230423042304A1
:1049200023042304230423041501810223048102A8
:104930002304230423042304C60223042304CD02F6
:1049400023042304230423042304F702230423045D
:10495000250323042304230423042304230423041E
:104960002304230423046603790381028102810264
:104970008103790323042304D1032304DB03A3006D
:104980006400EE032304F5032304AA032304230491
:10499000BC030C980E9340420C90079B43F0040319
:1049A000079398F8003092E70E98AB460021046810
:1049B0008DF86F10071D0798302378228B458DF8EE
:1049C00070304FF000058DF8712040F00203C0F206
:1049D000C78320F0800343F00203079354EA0503E2
:1049E0000E9700F093830F461192B348CEE223AAAC
:1049F00009990A9803F012F948B90DF1C00952E774
:104A0000259B23B10A98099923AA03F007F9099B6A
:104A10009B8913F0400F0B9B18BF4FF0FF331846D4
:104A200041B0BDE8F08F1193AB46002A41F03382CC
:104A3000079A12F0200300F02E820E9F073727F00E
:104A40000703002703F10801BB450E91D3E9004598
:104A50008DF86F70C0F2798722F08003079354EAD3
:104A6000050300F0758330AEE20842EA4572E908BA
:104A700004F007030D461446303354EA050206F8E5
:104A8000013DF1D1079AD10740F18480302B00F02D
:104A900081803022731E06F8012C30AAD21A0D92A2
:104AA0001E467AE098F800302A2B08F1010401F044
:104AB000B981A3F13000092898BF002501F26C816B
:104AC00014F8013B05EB850500EB4505A3F130002B
:104AD0000928F5D945EAE575A046FAE6079B43F0B3
:104AE0008003079398F80030F1E6A3F1300000232B
:104AF0001C4618F8013B04EB840400EB4404A3F1CA
:104B000030000928F5D90C94E3E61193AB46002A4E
:104B100041F0AB81079B43F010030793079B980676
:104B200040F130850E9F073727F00707D7E90023AC
:104B300007F108010E9114461D46002A73F1000387
:104B4000C0F25B85BBF1000F9DF86F70C0F2388535
:104B5000079B23F08003079354EA050300F0DB81F1
:104B6000002D08BF0A2CC0F0DB8130AE204629465C
:104B70000A220023FFF7F6F9303206F8012D20460D
:104B8000294600230A22FFF7EDF904460D4654EAB0
:104B90000503EBD130AB9B1B0D930D9B5B45B8BF61
:104BA0005B4608930023139317B1089B01330893C6
:104BB000079B13F002030F9302D0089B0233089364
:104BC000079B13F08403109340F0D7820C9B089A44
:104BD0009D1A002D40F3D182102D2599249A374F2C
:104BE00027DD189648461024B946099E2F460A9D8F
:104BF00004E0103F102F00F1080016DD01322F4BAA
:104C000024921031072A259180E81800F1DD23AAAB
:104C10003146284603F002F800287FF4F8AE103F32
:104C2000102F2599249A30A8E8DC189E3D464F465F
:104C3000814601326C18072A25942492C9F8007025
:104C4000C9F8045000F328849DF86F7009F1080931
:104C500077B1249B013301340DF16F010122072B41
:104C60002594249389E8060000F3A08309F108093C
:104C70000F9B6BB1249B013302341CA90222072B2A
:104C80002594249389E8060000F39C8309F1080920
:104C9000109B802B00F0D5820D9BC3EB0B07002FE0
:104CA00039DD074A249B0F92102F28DD22464FF052
:104CB000100B0A9D099C0AE0D88F4000F88F400035
:104CC000A48F4000103F102F09F1080916DD0133B1
:104CD0001032072B2592249389E8000CF2DD23AAD9
:104CE0002146284602F09AFF00287FF490AE103F3C
:104CF000102F259A249B0DF1C009E8DC14460133DE
:104D00000F9A24933C44072B259489E8840000F3F0
:104D1000418309F10809079BDA0500F13082249BE1
:104D20000D99C9F8006001330C44072B2594C9F88C
:104D30000410249300F3188309F10809079B59070D
:104D40003FD50C9B089A9D1A002D3ADD102D249B0F
:104D5000BC4F23DD22461026DDF828B0099C04E074
:104D6000103D102D09F1080917DD0133B5492493D1
:104D70001032072B259289E84200F1DD23AA214653
:104D8000584602F04BFF00287FF441AE103D102D35
:104D9000259A249B0DF1C009E7DC144601332C440D
:104DA000072B25942493C9F80070C9F8045008DD36
:104DB00023AA09990A9802F031FF00287FF427AE50
:104DC000259C0B9B0C9A08998A42ACBF9B185B18D8
:104DD0000B93002C40F0D482002324930DF1C009E2
:104DE00042E51193AB46002A41F051800E9F0737F0
:104DF00027F0070303F108020E921A6814925B6809
:104E00001593159B149D23F00044284621464FF02E
:104E1000FF328D4B04F004F8002840F0C28428468D
:104E200021464FF0FF32884B03F0DCFF002840F0B2
:104E3000B884149815990022002303F0C9FF0028B4
:104E400040F04F879DF86F70804E814B079921F09D
:104E500080010791119903224FF0000B0892472916
:104E6000D8BF1E460D92CDF84CB09DE6079B43F08F
:104E70000803079398F8003029E51193AB46002A00
:104E800041F01180079B43F010030793079A12F03B
:104E900020037FF4D2AD079911F0100200F02C85A9
:104EA0000E988DF86F30BBF1000F046800F1040715
:104EB0004FF00005C0F248850A4622F080020792B2
:104EC00054EA05020E9700F043811F46CBE511938B
:104ED000AB46002A40F0E387079B43F0100307939B
:104EE000079A12F0200300F032830E9F073727F055
:104EF0000703002703F10801BB450E91D3E90045E4
:104F00008DF86F70C0F25C8322F08003079354EA3F
:104F100005037FF425AEBBF1000F00F0FE800024F6
:104F200040AE303406F8414D34E61193AB46002ACA
:104F300040F09787079B47489D0640F197800E9F5A
:104F4000073727F00703D3E9004503F108020E9263
:104F5000079A12F0010700F0418254EA050300F0BD
:104F600005859DF844208DF871200027079A8DF85B
:104F70006F703023BB458DF8703042F00203C0F2F1
:104F8000B58622F0800343F00203079330AE230975
:104F900004F00F0143EA05732A091C461546435CD9
:104FA00006F8013D54EA0503F1D1F3E50E9911939A
:104FB0000A688DF8982000230A461F468DF86F3046
:104FC000043201230893BB4613970E920D9326AE2D
:104FD000EEE51193AB46002A3FF4A0AD8DF86F10BB
:104FE0009CE5079B43F04003079398F800306EE47C
:104FF00098F8003000297FF46AAC0122202166E491
:10500000079B43F00103079398F800305FE40E9C80
:1050100023680C9318460028234603F10403FFF687
:10502000B8AC0E9398F8003051E498F800300122A3
:105030002B214CE41193AB46002A3FF451AF8DF87D
:105040006F104DE7F88F4000FFFFEF7FB88F4000F3
:10505000B48F4000C48F40001193AB46002A40F04B
:105060002A87079B99489D063FF569AF079BDC0699
:1050700040F135840E9A1346043314680E930025CC
:1050800066E798F800306C2B00F0E284079840F057
:10509000100007901BE4002A40F00987079B9B063D
:1050A00040F106840E9A0B991368CD170846043216
:1050B00029460E92C3E90001FFF7D6BB079B43F0D8
:1050C0002003079398F8003001E40E9A11931668B4
:1050D00000248DF86F40171D002E00F0CD85002DA7
:1050E000C0F218852A462146304602F0A1F9002870
:1050F00000F02A86831B0D93A34623EAE3730E97E1
:105100000893CDF84CB09DF86F704DE56F48119243
:10511000BBF1000F40F073815F464FF0000BCDF8FC
:1051200034B030AE39E51193002A40F0AC86119AC4
:10513000002A3FF465AC002301211F4608918DF839
:1051400098208DF86F309B4613930D9126AE2FE576
:10515000BBF1000F00F0038600270024002582E445
:105160005A480793119254EA05030E974FF000072F
:105170007FF40CAF0024002508E7259C68E5119B0F
:10518000652B40F3A980149815990022002303F0A1
:1051900015FE002800F03581249B4D4AC9F80020F7
:1051A000013301340122072B25942493C9F80420EC
:1051B00000F3E88309F108091D9B129A934203DB6F
:1051C000079BDB077FF5BAAD249B1699179AC9F8A0
:1051D000002001330C44072B2594C9F804102493B4
:1051E00000F3408409F10809129B5D1E002D7FF732
:1051F000A5AD384A249B0F92102D40F3E68110266E
:105200000A9FDDF824B005E009F10809103D102DD2
:1052100040F3DB8101331034072B25942493C9F824
:1052200000A0C9F80460EFDD23AA5946384602F011
:10523000F5FC00287FF4EBAB259C249B0DF1C00905
:10524000E4E70C9B089A9F1A002F7FF725AD214AAF
:10525000249B0F92102F2BDD4A462146B94610257C
:1052600037460A9C099E06E0A9F11009B9F1100F12
:1052700002F1080218DD01331031072B2591249328
:10528000C2F800A05560EFDD23AA3146204602F0A7
:10529000C5FC00287FF4BBABA9F11009B9F1100FD0
:1052A0002599249B30AAE6DC3E460C464F469146A3
:1052B00001330F9A24933C44072B259489E88400FA
:1052C00000F3458209F10809E6E400BFD88F4000E9
:1052D000F48F4000A48F4000129B249D012B40F3CB
:1052E0000882013501340123072D25942495C9F83E
:1052F0000060C9F8043000F30D8209F10809169A1C
:10530000179BC9F8003001351444072D25942495C6
:10531000C9F8042000F30E8209F10809002314984B
:105320001599002203F04AFD129B002840F0C3802B
:10533000013B013501361C44072D24952594C9F8FD
:105340000060C9F8043000F3F58009F10809199AE2
:10535000C9F80420013514441FAB072D259424956A
:10536000C9F800307FF7E8AC23AA09990A9802F03F
:1053700055FC00287FF44BAB259C0DF1C009DDE402
:1053800023AA09990A9802F049FC00283FF424ADA9
:10539000FFF73DBB23AA09990A9802F03FFC0028B9
:1053A0007FF435AB259C0DF1C009B4E423AA09991B
:1053B0000A9802F033FC00287FF429AB259C0DF1FC
:1053C000C00955E423AA09990A9802F027FC00288D
:1053D0007FF41DAB259C0DF1C00959E4BBF1000F12
:1053E0008DF86F70C0F2DA8222F08003079354EADE
:1053F00005037FF4CBADBBF1000F3FF48DAE00276A
:10540000B8E61D9D002D40F3CC82139B129A934267
:10541000A8BF1346002B1D460DDD249BC9F8006074
:1054200001332C44072B2594C9F80450249300F32E
:10543000A38309F10809139B002DA8BF5B1B002B58
:105440001D4640F3F680BA4A249B0F92102D40F37C
:10545000808222461027DDF828B0099C05E009F17A
:105460000809103D102D40F3738201331032072BD1
:1054700025922493C9F800A0C9F80470EFDD23AA8F
:105480002146584602F0CAFB00287FF4C0AA259A9C
:10549000249B0DF1C009E4E723AA09990A9802F0B8
:1054A000BDFB00287FF4B3AA9DF86F70259C0DF119
:1054B000C009FFF7CDBB5E1E002E7FF748AF9C4BA7
:1054C0000F93102E2CDDCDF834801027B046DDF878
:1054D00028B0099E06E0A8F11008B8F1100F09F1F4
:1054E00008091ADD01351034072D25942495C9F8D3
:1054F00000A0C9F80470EEDD23AA3146584602F038
:105500008DFB00287FF483AAA8F11008B8F1100FD2
:10551000259C249D0DF1C009E4DC4646DDF834806D
:105520000F9B01353444072D2594249589E84800C4
:105530007FF70BAF23AA09990A9802F06FFB0028A6
:105540007FF465AA259C249D0DF1C009FFE607990B
:1055500011F0100200F008810E988DF86F30BBF149
:10556000000F046800F104074FF0000526DB0A462F
:1055700022F08002079254EA05020E971F467FF43C
:10558000EFAAC8E4079BD9062AD4079B5A0627D559
:105590000E99B1F900400431E51722462B460E91D1
:1055A000FFF7CBBA0E998DF86F30BBF1000F0C6886
:1055B00001F104074FF0000580F245820E971F4667
:1055C00054EA05037FF4CCAAAAE401330F9A24938A
:1055D0002C44072B259489E824007FF7ADABC3E664
:1055E0000E9A146813460433E51722460E93002AD8
:1055F0002B4673F10003BFF6A5AA64424FF02D07B6
:1056000065EB4505BBF1000F8DF86F70FFF6A8AA9A
:10561000079B23F080030793FFF7A2BA23AA0999F7
:105620000A9802F0FBFA00287FF4F1A9259C0DF1FD
:10563000C009139A1D9B32441746129A934247DBC6
:10564000079AD50744D412990E44F51BCB1A9D42F4
:10565000A8BF1D46002D2E460DDD249AC9F8007006
:1056600001322C44072A2594C9F80450249200F3EF
:10567000128309F10809002EACBF9D1B1D46002DA9
:105680007FF75CAB2A4A249B0F92102D9DDD1026DC
:105690000A9FDDF824B004E009F10809103D102D3F
:1056A00093DD01331034072B25942493C9F800A00F
:1056B000C9F80460F0DD23AA5946384602F0AEFA74
:1056C00000287FF4A4A9259C249B0DF1C009E5E7DF
:1056D000249A16981799C9F8001001320444072A31
:1056E0002594C9F80400249200F3A58209F1080961
:1056F000A9E7079BD8073FF5F4AD01350134012335
:10570000072D25942495C9F80060C9F804307FF767
:105710001CAE0FE723AA09990A9802F07FFA002825
:105720007FF475A9259C249D0DF1C009E7E500BF14
:10573000A48F400023AA09990A9802F06FFA002862
:105740007FF465A9259C249D0DF1C009E6E523AAF7
:1057500009990A9802F062FA00287FF458A9259C5A
:105760000DF1C009FFF798BA079911F040033FF413
:1057700019AF0E988DF86F200346BBF1000F03F1AF
:10578000040304884FF00005C0F2B98121F08001C4
:10579000079154EA05010E9317467FF4E1A9FFF73C
:1057A000BABB149C22462046159C2346214603F092
:1057B00037FB002840F01583119BBBF1FF3F23F01E
:1057C00020030D9300F07682472B00F09281079B17
:1057D00043F480731093159B1F1E149B0893BBBF4B
:1057E0003B4603F1004700232D230F93119B662BAB
:1057F00000F06382462B00F05E810D9B089A452BDA
:1058000021A81EA90CBF0BF101055D460490039170
:105810001DA802213B460290019500910A9800F0D4
:10582000FBFB119B672B064640F07D82079BDA0746
:1058300040F1BF827419089839460022002303F012
:10584000BDFA002840F0A481219B9C4206D930215A
:105850005A1C21921970219B9C42F9D89B1B1293D0
:105860000D9B472B00F08181119B652B40F36A82D1
:10587000119B662B1D9B139300F04782139A12997C
:105880008A42C0F23682079BD90700F1898222EA58
:10589000E2730D92672211920F9A002A40F05B8109
:1058A0000893109B079393469DF86F70FFF77CB9A0
:1058B000079BDF060BD4079B5E0608D50E9A13687C
:1058C00004320E92BDF82C201A80FEF7CDBF0E9A3E
:1058D000136804320E920B9A1A60FEF7C5BF079B3D
:1058E0000E9A13F0400F134600F00E810433148813
:1058F0000E930025FFF72CBB079911F0400317D03A
:105900000E988DF86F200346BBF1000F03F10403DE
:1059100004884FF00005C0F2F58021F08001079166
:1059200054EA05010E933FF413AC1746FFF79BB8FA
:105930000E998DF86F30BBF1000F0C6801F1040770
:105940004FF0000580F281800E970027FFF78BB89B
:10595000144601330F9A24932C44072B259489E88D
:1059600024003FF75BAE09F1080962E60027BB455A
:105970008DF86F70FFF6FEAB079B23F08003079353
:10598000FFF7C6BB23AA09990A9802F047F9002835
:105990007FF43DA8259C0DF1C0090DE40E9FFFF793
:1059A000E2BB249BB14AC9F8002001330134012233
:1059B000072B25942493C9F804206FDC09F108090A
:1059C0002DB9129B1BB9079BDF077FF5B7A9249B55
:1059D0001699179AC9F8002001330C44072B259417
:1059E000C9F80410249300F3C98109F108096D4234
:1059F000002D40F3A3809E4A0F92102D40F3298181
:105A000022461027DDF828B0099C05E009F10809B5
:105A1000103D102D40F31C8101331032072B2592CD
:105A20002493C9F800A0C9F80470EFDD23AA214629
:105A3000584602F0F3F800287EF4E9AF259A249B3B
:105A40000DF1C009E4E7079A92E5079AFFF735BA26
:105A5000079B43F02003079308F1010898F80030F2
:105A6000FEF735BF23AA09990A9802F0D7F8002853
:105A70007EF4CDAF259C0DF1C009FFF7B5BB4021E9
:105A80000A9801F017FA099A10601061002800F0D6
:105A9000F381099A40235361FEF7D7BE23AA0999DF
:105AA0000A9802F0BBF800287EF4B1AF1D9D259C3A
:105AB0000DF1C00984E721A81EA9049003911DA837
:105AC00003210290089ACDF804B03B4600910A9851
